:030108000108FFEC
:1000F400EF4E600F7D027CEFDCFEDDFCEF1F70F045
:030104001E80ED6D
:0101070022D5
:10008F007508FF750900750A07E4F50BF50CD3E544
:10009F000C950AE5096480F8E50B6480985023AF4E
:1000AF000CA8077401088002C333D8FCF45508F577
:1000BF00A07F647E001200F4050CE50C70D0050BD8
:1000CF0080CCAF0AA8077401088002C333D8FCF4B0
:1000DF005208E50A150A70021509C3E509648094F0
:0500EF008050A6809B7B
:03000000020003F8
:0C000300787FE4F6D8FD75810C02004AFD
:10000F0002008FE493A3F8E493A34003F68001F278
:10001F0008DFF48029E493A3F85407240CC8C333F2
:10002F00C4540F4420C8834004F456800146F6DFC1
:10003F00E4800B0102040810204080900108E47E48
:10004F00019360BCA3FF543F30E509541FFEE493B6
:10005F00A360010ECF54C025E060A840B8E493A37D
:10006F00FAE493A3F8E493A3C8C582C8CAC583CAA8
:10007F00F0A3C8C582C8CAC583CADFE9DEE780BE60
:01010B0000F3
:00000001FF
