:1000FF00E4FDFC7F0112008F7D057C007F02120062
:10010F008F7D027C007F0312008FE4FDFC7F0412C1
:10011F00008F7D017C007F0512008F7D037C007FA7
:10012F000612008F7D017C007F0712008F7D047CFB
:08013F00007F0812008F80B858
:10015E00EF1FAC0670011E4C600A7D027CEFDCFEC8
:04016E00DDFC80EC48
:01017200226A
:100147001408003F0006005B004F0066006D007D4D
:060157000007007F006FAD
:10008F00EF14B4080050549000A475F003A4C58376
:10009F0025F0C583730200BC0200C00200C4020039
:1000AF00C80200CC0200D40200DC0200E4D2A4801B
:1000BF000ED2A48012D2A48016D2A4801AC2A4D2C7
:1000CF00A3D2A28016C2A4D2A3C2A2800EC2A4C27F
:1000DF00A3D2A28006C2A4C2A3C2A2ED25E0240827
:1000EF00F808E6F5807F017E0012015EE4F58022BC
:03000000020003F8
:0C000300787FE4F6D8FD75811B02004AEE
:10000F000200FFE493A3F8E493A34003F68001F208
:10001F0008DFF48029E493A3F85407240CC8C333F2
:10002F00C4540F4420C8834004F456800146F6DFC1
:10003F00E4800B0102040810204080900147E47E09
:10004F00019360BCA3FF543F30E509541FFEE493B6
:10005F00A360010ECF54C025E060A840B8E493A37D
:10006F00FAE493A3F8E493A3C8C582C8CAC583CAA8
:10007F00F0A3C8C582C8CAC583CADFE9DEE780BE60
:01015D0000A1
:00000001FF
